S01F000041546D65676133325F554152545F494E544552525550542E73726563AA
S11300000C942A000C9447000C9447000C9447006D
S11300100C9447000C9447000C9447000C94470040
S11300200C9447000C9447000C9447000C94470030
S11300300C9447000C9404010C94D1000C944700D8
S11300400C9447000C9447000C9447000C94470010
S11300500C94470011241FBECFE5D8E0DEBFCDBF0E
S113006010E0A0E6B0E0EAE0F3E002C005900D92F3
S1130070A038B107D9F720E0A0E8B0E001C01D9294
S1130080AE3EB207E1F70E9449000C9483010C9440
S1130090000060E875E280E090E00E9459007894E6
S11300A08FE690E00E94C20080E690E00E94C200C9
S11300B0FFCFDC01CB01880F991FAA1FBB1F880F3C
S11300C0991FAA1FBB1F9C01AD01220F331F441FA0
S11300D0551F220F331F441F551F60E072E18AE74A
S11300E090E00E946101822F815089B9DA01C9012F
S11300F00197A109B109892F9A2FAB2FBB2780BD86
S11301008AB1886B8AB980B5866880BD1092E70091
S11301101092E80022E32093E60080E890E09093B8
S1130120E5008093E4001092EC001092ED0020931F
S1130130EB0082EB90E09093EA008093E90008954D
S11301402091E8009091E7003091E600391711F012
S11301509F5F01C090E02917A1F0E7EEF0E09081E5
S1130160A091E400B091E500A90FB11D8C938081AA
S11301709091E600981711F08F5F01C080E08093A2
S1130180E7000895CF93DF93EC018881882331F051
S113019021960E94A00089918111FBCFDF91CF911C
S11301A008951F920F920FB60F9211242F938F93DD
S11301B09F93AF93BF93EF93FF939091E800809147
S11301C0E7009817A9F0E8EEF0E08081A091E40040
S11301D0B091E500A80FB11D9C9180812091E600AB
S11301E0281711F08F5F01C080E08093E8009CB96C
S11301F0FF91EF91BF91AF919F918F912F910F90AC
S11302000FBE0F901F9018951F920F920FB60F926A
S113021011242F933F938F939F93AF93BF93EF93A7
S1130220FF939CB12091ED008091EC003091EB00A4
S1130230381711F08F5F01C080E02817A1F0ECEEB1
S1130240F0E08081A091E900B091EA00A80FB11D0F
S11302509C9380812091EB00281711F08F5F01C0DF
S113026080E08093EC002091E8008091E7003091D9
S1130270E600381711F08F5F01C080E02817A1F065
S1130280E7EEF0E08081A091E400B091E500A80FD2
S1130290B11D9C9380819091E600981711F08F5FB7
S11302A001C080E08093E700FF91EF91BF91AF918F
S11302B09F918F913F912F910F900FBE0F901F90A0
S11302C01895A1E21A2EAA1BBB1BFD010DC0AA1F83
S11302D0BB1FEE1FFF1FA217B307E407F50720F0AB
S11302E0A21BB30BE40BF50B661F771F881F991F26
S11302F01A9469F760957095809590959B01AC016F
S10D0300BD01CF010895F894FFCF6A
S113030A456E74657220537472696E670D0A000D26
S113031A0A48656C6C6F20576F726C64210D0A0071
S9030000FC
